{
  "_format": "hh-sol-artifact-1",
  "contractName": "MockERC20",
  "sourceName": "contracts/MockERC20.sol",
  "abi": [
    {
      "inputs": [
        {
          "internalType": "string",
          "name": "name",
          "type": "string"
        },
        {
          "internalType": "string",
          "name": "symbol",
          "type": "string"
        },
        {
          "internalType": "uint8",
          "name": "decimalsValue",
          "type": "uint8"
        },
        {
          "internalType": "uint256",
          "name": "initialSupply",
          "type": "uint256"
        }
      ],
      "stateMutability": "nonpayable",
      "type": "constructor"
    },
    {
      "inputs": [
        {
          "internalType": "address",
          "name": "spender",
          "type": "address"
        },
        {
          "internalType": "uint256",
          "name": "allowance",
          "type": "uint256"
        },
        {
          "internalType": "uint256",
          "name": "needed",
          "type": "uint256"
        }
      ],
      "name": "ERC20InsufficientAllowance",
      "type": "error"
    },
    {
      "inputs": [
        {
          "internalType": "address",
          "name": "sender",
          "type": "address"
        },
        {
          "internalType": "uint256",
          "name": "balance",
          "type": "uint256"
        },
        {
          "internalType": "uint256",
          "name": "needed",
          "type": "uint256"
        }
      ],
      "name": "ERC20InsufficientBalance",
      "type": "error"
    },
    {
      "inputs": [
        {
          "internalType": "address",
          "name": "approver",
          "type": "address"
        }
      ],
      "name": "ERC20InvalidApprover",
      "type": "error"
    },
    {
      "inputs": [
        {
          "internalType": "address",
          "name": "receiver",
          "type": "address"
        }
      ],
      "name": "ERC20InvalidReceiver",
      "type": "error"
    },
    {
      "inputs": [
        {
          "internalType": "address",
          "name": "sender",
          "type": "address"
        }
      ],
      "name": "ERC20InvalidSender",
      "type": "error"
    },
    {
      "inputs": [
        {
          "internalType": "address",
          "name": "spender",
          "type": "address"
        }
      ],
      "name": "ERC20InvalidSpender",
      "type": "error"
    },
    {
      "inputs": [
        {
          "internalType": "address",
          "name": "owner",
          "type": "address"
        }
      ],
      "name": "OwnableInvalidOwner",
      "type": "error"
    },
    {
      "inputs": [
        {
          "internalType": "address",
          "name": "account",
          "type": "address"
        }
      ],
      "name": "OwnableUnauthorizedAccount",
      "type": "error"
    },
    {
      "anonymous": false,
      "inputs": [
        {
          "indexed": true,
          "internalType": "address",
          "name": "owner",
          "type": "address"
        },
        {
          "indexed": true,
          "internalType": "address",
          "name": "spender",
          "type": "address"
        },
        {
          "indexed": false,
          "internalType": "uint256",
          "name": "value",
          "type": "uint256"
        }
      ],
      "name": "Approval",
      "type": "event"
    },
    {
      "anonymous": false,
      "inputs": [
        {
          "indexed": true,
          "internalType": "address",
          "name": "previousOwner",
          "type": "address"
        },
        {
          "indexed": true,
          "internalType": "address",
          "name": "newOwner",
          "type": "address"
        }
      ],
      "name": "OwnershipTransferred",
      "type": "event"
    },
    {
      "anonymous": false,
      "inputs": [
        {
          "indexed": true,
          "internalType": "address",
          "name": "from",
          "type": "address"
        },
        {
          "indexed": true,
          "internalType": "address",
          "name": "to",
          "type": "address"
        },
        {
          "indexed": false,
          "internalType": "uint256",
          "name": "value",
          "type": "uint256"
        }
      ],
      "name": "Transfer",
      "type": "event"
    },
    {
      "inputs": [
        {
          "internalType": "address[]",
          "name": "recipients",
          "type": "address[]"
        },
        {
          "internalType": "uint256",
          "name": "amount",
          "type": "uint256"
        }
      ],
      "name": "airdrop",
      "outputs": [],
      "stateMutability": "nonpayable",
      "type": "function"
    },
    {
      "inputs": [
        {
          "internalType": "address",
          "name": "owner",
          "type": "address"
        },
        {
          "internalType": "address",
          "name": "spender",
          "type": "address"
        }
      ],
      "name": "allowance",
      "outputs": [
        {
          "internalType": "uint256",
          "name": "",
          "type": "uint256"
        }
      ],
      "stateMutability": "view",
      "type": "function"
    },
    {
      "inputs": [
        {
          "internalType": "address",
          "name": "spender",
          "type": "address"
        },
        {
          "internalType": "uint256",
          "name": "value",
          "type": "uint256"
        }
      ],
      "name": "approve",
      "outputs": [
        {
          "internalType": "bool",
          "name": "",
          "type": "bool"
        }
      ],
      "stateMutability": "nonpayable",
      "type": "function"
    },
    {
      "inputs": [
        {
          "internalType": "address",
          "name": "account",
          "type": "address"
        }
      ],
      "name": "balanceOf",
      "outputs": [
        {
          "internalType": "uint256",
          "name": "",
          "type": "uint256"
        }
      ],
      "stateMutability": "view",
      "type": "function"
    },
    {
      "inputs": [
        {
          "internalType": "uint256",
          "name": "amount",
          "type": "uint256"
        }
      ],
      "name": "burn",
      "outputs": [],
      "stateMutability": "nonpayable",
      "type": "function"
    },
    {
      "inputs": [],
      "name": "decimals",
      "outputs": [
        {
          "internalType": "uint8",
          "name": "",
          "type": "uint8"
        }
      ],
      "stateMutability": "view",
      "type": "function"
    },
    {
      "inputs": [
        {
          "internalType": "uint256",
          "name": "amount",
          "type": "uint256"
        }
      ],
      "name": "faucet",
      "outputs": [],
      "stateMutability": "nonpayable",
      "type": "function"
    },
    {
      "inputs": [
        {
          "internalType": "address",
          "name": "to",
          "type": "address"
        },
        {
          "internalType": "uint256",
          "name": "amount",
          "type": "uint256"
        }
      ],
      "name": "mint",
      "outputs": [],
      "stateMutability": "nonpayable",
      "type": "function"
    },
    {
      "inputs": [],
      "name": "name",
      "outputs": [
        {
          "internalType": "string",
          "name": "",
          "type": "string"
        }
      ],
      "stateMutability": "view",
      "type": "function"
    },
    {
      "inputs": [],
      "name": "owner",
      "outputs": [
        {
          "internalType": "address",
          "name": "",
          "type": "address"
        }
      ],
      "stateMutability": "view",
      "type": "function"
    },
    {
      "inputs": [],
      "name": "renounceOwnership",
      "outputs": [],
      "stateMutability": "nonpayable",
      "type": "function"
    },
    {
      "inputs": [],
      "name": "symbol",
      "outputs": [
        {
          "internalType": "string",
          "name": "",
          "type": "string"
        }
      ],
      "stateMutability": "view",
      "type": "function"
    },
    {
      "inputs": [],
      "name": "totalSupply",
      "outputs": [
        {
          "internalType": "uint256",
          "name": "",
          "type": "uint256"
        }
      ],
      "stateMutability": "view",
      "type": "function"
    },
    {
      "inputs": [
        {
          "internalType": "address",
          "name": "to",
          "type": "address"
        },
        {
          "internalType": "uint256",
          "name": "value",
          "type": "uint256"
        }
      ],
      "name": "transfer",
      "outputs": [
        {
          "internalType": "bool",
          "name": "",
          "type": "bool"
        }
      ],
      "stateMutability": "nonpayable",
      "type": "function"
    },
    {
      "inputs": [
        {
          "internalType": "address",
          "name": "from",
          "type": "address"
        },
        {
          "internalType": "address",
          "name": "to",
          "type": "address"
        },
        {
          "internalType": "uint256",
          "name": "value",
          "type": "uint256"
        }
      ],
      "name": "transferFrom",
      "outputs": [
        {
          "internalType": "bool",
          "name": "",
          "type": "bool"
        }
      ],
      "stateMutability": "nonpayable",
      "type": "function"
    },
    {
      "inputs": [
        {
          "internalType": "address",
          "name": "newOwner",
          "type": "address"
        }
      ],
      "name": "transferOwnership",
      "outputs": [],
      "stateMutability": "nonpayable",
      "type": "function"
    }
  ],
  "bytecode": "0x60806040523480156200001157600080fd5b506040516200101038038062001010833981016040819052620000349162000349565b338484600362000045838262000463565b50600462000054828262000463565b5050506001600160a01b0381166200008757604051631e4fbdf760e01b8152600060048201526024015b60405180910390fd5b6200009281620000c1565b506005805460ff60a01b1916600160a01b60ff851602179055620000b7338262000113565b5050505062000557565b600580546001600160a01b038381166001600160a01b0319831681179093556040519116919082907f8be0079c531659141344cd1fd0a4f28419497f9722a3daafe3b4186f6b6457e090600090a35050565b6001600160a01b0382166200013f5760405163ec442f0560e01b8152600060048201526024016200007e565b6200014d6000838362000151565b5050565b6001600160a01b038316620001805780600260008282546200017491906200052f565b90915550620001f49050565b6001600160a01b03831660009081526020819052604090205481811015620001d55760405163391434e360e21b81526001600160a01b038516600482015260248101829052604481018390526064016200007e565b6001600160a01b03841660009081526020819052604090209082900390555b6001600160a01b038216620002125760028054829003905562000231565b6001600160a01b03821660009081526020819052604090208054820190555b816001600160a01b0316836001600160a01b03167fddf252ad1be2c89b69c2b068fc378daa952ba7f163c4a11628f55a4df523b3ef836040516200027791815260200190565b60405180910390a3505050565b634e487b7160e01b600052604160045260246000fd5b600082601f830112620002ac57600080fd5b81516001600160401b0380821115620002c957620002c962000284565b604051601f8301601f19908116603f01168101908282118183101715620002f457620002f462000284565b816040528381526020925086838588010111156200031157600080fd5b600091505b8382101562000335578582018301518183018401529082019062000316565b600093810190920192909252949350505050565b600080600080608085870312156200036057600080fd5b84516001600160401b03808211156200037857600080fd5b62000386888389016200029a565b955060208701519150808211156200039d57600080fd5b50620003ac878288016200029a565b935050604085015160ff81168114620003c457600080fd5b6060959095015193969295505050565b600181811c90821680620003e957607f821691505b6020821081036200040a57634e487b7160e01b600052602260045260246000fd5b50919050565b601f8211156200045e57600081815260208120601f850160051c81016020861015620004395750805b601f850160051c820191505b818110156200045a5782815560010162000445565b5050505b505050565b81516001600160401b038111156200047f576200047f62000284565b6200049781620004908454620003d4565b8462000410565b602080601f831160018114620004cf5760008415620004b65750858301515b600019600386901b1c1916600185901b1785556200045a565b600085815260208120601f198616915b828110156200050057888601518255948401946001909101908401620004df565b50858210156200051f5787850151600019600388901b60f8161c191681555b5050505050600190811b01905550565b808201808211156200055157634e487b7160e01b600052601160045260246000fd5b92915050565b610aa980620005676000396000f3fe608060405234801561001057600080fd5b50600436106101005760003560e01c806370a0823111610097578063a9059cbb11610066578063a9059cbb14610219578063c204642c1461022c578063dd62ed3e1461023f578063f2fde38b1461027857600080fd5b806370a08231146101c5578063715018a6146101ee5780638da5cb5b146101f657806395d89b411461021157600080fd5b8063313ce567116100d3578063313ce5671461016b57806340c10f191461018a57806342966c681461019f57806357915897146101b257600080fd5b806306fdde0314610105578063095ea7b31461012357806318160ddd1461014657806323b872dd14610158575b600080fd5b61010d61028b565b60405161011a9190610828565b60405180910390f35b610136610131366004610892565b61031d565b604051901515815260200161011a565b6002545b60405190815260200161011a565b6101366101663660046108bc565b610337565b600554600160a01b900460ff1660405160ff909116815260200161011a565b61019d610198366004610892565b61035b565b005b61019d6101ad3660046108f8565b610371565b61019d6101c03660046108f8565b61037e565b61014a6101d3366004610911565b6001600160a01b031660009081526020819052604090205490565b61019d610388565b6005546040516001600160a01b03909116815260200161011a565b61010d61039c565b610136610227366004610892565b6103ab565b61019d61023a366004610933565b6103b9565b61014a61024d3660046109ae565b6001600160a01b03918216600090815260016020908152604080832093909416825291909152205490565b61019d610286366004610911565b610414565b60606003805461029a906109e1565b80601f01602080910402602001604051908101604052809291908181526020018280546102c6906109e1565b80156103135780601f106102e857610100808354040283529160200191610313565b820191906000526020600020905b8154815290600101906020018083116102f657829003601f168201915b5050505050905090565b60003361032b818585610454565b60019150505b92915050565b600033610345858285610466565b6103508585856104df565b506001949350505050565b61036361053e565b61036d828261056b565b5050565b61037b33826105a1565b50565b61037b338261056b565b61039061053e565b61039a60006105d7565b565b60606004805461029a906109e1565b60003361032b8185856104df565b6103c161053e565b60005b8281101561040e576103fc8484838181106103e1576103e1610a1b565b90506020020160208101906103f69190610911565b8361056b565b8061040681610a47565b9150506103c4565b50505050565b61041c61053e565b6001600160a01b03811661044b57604051631e4fbdf760e01b8152600060048201526024015b60405180910390fd5b61037b816105d7565b6104618383836001610629565b505050565b6001600160a01b0383811660009081526001602090815260408083209386168352929052205460001981101561040e57818110156104d057604051637dc7a0d960e11b81526001600160a01b03841660048201526024810182905260448101839052606401610442565b61040e84848484036000610629565b6001600160a01b03831661050957604051634b637e8f60e11b815260006004820152602401610442565b6001600160a01b0382166105335760405163ec442f0560e01b815260006004820152602401610442565b6104618383836106fe565b6005546001600160a01b0316331461039a5760405163118cdaa760e01b8152336004820152602401610442565b6001600160a01b0382166105955760405163ec442f0560e01b815260006004820152602401610442565b61036d600083836106fe565b6001600160a01b0382166105cb57604051634b637e8f60e11b815260006004820152602401610442565b61036d826000836106fe565b600580546001600160a01b038381166001600160a01b0319831681179093556040519116919082907f8be0079c531659141344cd1fd0a4f28419497f9722a3daafe3b4186f6b6457e090600090a35050565b6001600160a01b0384166106535760405163e602df0560e01b815260006004820152602401610442565b6001600160a01b03831661067d57604051634a1406b160e11b815260006004820152602401610442565b6001600160a01b038085166000908152600160209081526040808320938716835292905220829055801561040e57826001600160a01b0316846001600160a01b03167f8c5be1e5ebec7d5bd14f71427d1e84f3dd0314c0f7b2291e5b200ac8c7c3b925846040516106f091815260200190565b60405180910390a350505050565b6001600160a01b03831661072957806002600082825461071e9190610a60565b9091555061079b9050565b6001600160a01b0383166000908152602081905260409020548181101561077c5760405163391434e360e21b81526001600160a01b03851660048201526024810182905260448101839052606401610442565b6001600160a01b03841660009081526020819052604090209082900390555b6001600160a01b0382166107b7576002805482900390556107d6565b6001600160a01b03821660009081526020819052604090208054820190555b816001600160a01b0316836001600160a01b03167fddf252ad1be2c89b69c2b068fc378daa952ba7f163c4a11628f55a4df523b3ef8360405161081b91815260200190565b60405180910390a3505050565b600060208083528351808285015260005b8181101561085557858101830151858201604001528201610839565b506000604082860101526040601f19601f8301168501019250505092915050565b80356001600160a01b038116811461088d57600080fd5b919050565b600080604083850312156108a557600080fd5b6108ae83610876565b946020939093013593505050565b6000806000606084860312156108d157600080fd5b6108da84610876565b92506108e860208501610876565b9150604084013590509250925092565b60006020828403121561090a57600080fd5b5035919050565b60006020828403121561092357600080fd5b61092c82610876565b9392505050565b60008060006040848603121561094857600080fd5b833567ffffffffffffffff8082111561096057600080fd5b818601915086601f83011261097457600080fd5b81358181111561098357600080fd5b8760208260051b850101111561099857600080fd5b6020928301989097509590910135949350505050565b600080604083850312156109c157600080fd5b6109ca83610876565b91506109d860208401610876565b90509250929050565b600181811c908216806109f557607f821691505b602082108103610a1557634e487b7160e01b600052602260045260246000fd5b50919050565b634e487b7160e01b600052603260045260246000fd5b634e487b7160e01b600052601160045260246000fd5b600060018201610a5957610a59610a31565b5060010190565b8082018082111561033157610331610a3156fea26469706673582212209b8998fbed50fb85869c58c48bbef9fd1012bad19b52dbf7855f123233ff4ad064736f6c63430008140033",
  "linkReferences": {},
  "deployedLinkReferences": {}
}