{
  "_format": "hh-sol-artifact-1",
  "contractName": "NFTMarketplace",
  "sourceName": "contracts/NFTMarketplace.sol",
  "abi": [
    {
      "inputs": [
        {
          "internalType": "address",
          "name": "_usdcAddress",
          "type": "address"
        },
        {
          "internalType": "address",
          "name": "_usdtAddress",
          "type": "address"
        },
        {
          "internalType": "address",
          "name": "_feeRecipient",
          "type": "address"
        },
        {
          "internalType": "string",
          "name": "_name",
          "type": "string"
        },
        {
          "internalType": "string",
          "name": "_symbol",
          "type": "string"
        }
      ],
      "stateMutability": "nonpayable",
      "type": "constructor"
    },
    {
      "inputs": [],
      "name": "BlacklistedToken",
      "type": "error"
    },
    {
      "inputs": [],
      "name": "BlacklistedUser",
      "type": "error"
    },
    {
      "inputs": [],
      "name": "ContractPaused",
      "type": "error"
    },
    {
      "inputs": [
        {
          "internalType": "address",
          "name": "sender",
          "type": "address"
        },
        {
          "internalType": "uint256",
          "name": "tokenId",
          "type": "uint256"
        },
        {
          "internalType": "address",
          "name": "owner",
          "type": "address"
        }
      ],
      "name": "ERC721IncorrectOwner",
      "type": "error"
    },
    {
      "inputs": [
        {
          "internalType": "address",
          "name": "operator",
          "type": "address"
        },
        {
          "internalType": "uint256",
          "name": "tokenId",
          "type": "uint256"
        }
      ],
      "name": "ERC721InsufficientApproval",
      "type": "error"
    },
    {
      "inputs": [
        {
          "internalType": "address",
          "name": "approver",
          "type": "address"
        }
      ],
      "name": "ERC721InvalidApprover",
      "type": "error"
    },
    {
      "inputs": [
        {
          "internalType": "address",
          "name": "operator",
          "type": "address"
        }
      ],
      "name": "ERC721InvalidOperator",
      "type": "error"
    },
    {
      "inputs": [
        {
          "internalType": "address",
          "name": "owner",
          "type": "address"
        }
      ],
      "name": "ERC721InvalidOwner",
      "type": "error"
    },
    {
      "inputs": [
        {
          "internalType": "address",
          "name": "receiver",
          "type": "address"
        }
      ],
      "name": "ERC721InvalidReceiver",
      "type": "error"
    },
    {
      "inputs": [
        {
          "internalType": "address",
          "name": "sender",
          "type": "address"
        }
      ],
      "name": "ERC721InvalidSender",
      "type": "error"
    },
    {
      "inputs": [
        {
          "internalType": "uint256",
          "name": "tokenId",
          "type": "uint256"
        }
      ],
      "name": "ERC721NonexistentToken",
      "type": "error"
    },
    {
      "inputs": [],
      "name": "EmergencyWithdrawNotReady",
      "type": "error"
    },
    {
      "inputs": [],
      "name": "EnforcedPause",
      "type": "error"
    },
    {
      "inputs": [],
      "name": "ExpectedPause",
      "type": "error"
    },
    {
      "inputs": [],
      "name": "FailedCall",
      "type": "error"
    },
    {
      "inputs": [
        {
          "internalType": "uint256",
          "name": "balance",
          "type": "uint256"
        },
        {
          "internalType": "uint256",
          "name": "needed",
          "type": "uint256"
        }
      ],
      "name": "InsufficientBalance",
      "type": "error"
    },
    {
      "inputs": [],
      "name": "InsufficientPayment",
      "type": "error"
    },
    {
      "inputs": [],
      "name": "InvalidAddress",
      "type": "error"
    },
    {
      "inputs": [],
      "name": "InvalidListingPrice",
      "type": "error"
    },
    {
      "inputs": [],
      "name": "InvalidPaymentToken",
      "type": "error"
    },
    {
      "inputs": [],
      "name": "InvalidPlatformFee",
      "type": "error"
    },
    {
      "inputs": [],
      "name": "InvalidPrice",
      "type": "error"
    },
    {
      "inputs": [],
      "name": "InvalidRoyaltyPercentage",
      "type": "error"
    },
    {
      "inputs": [],
      "name": "NotItemOwner",
      "type": "error"
    },
    {
      "inputs": [],
      "name": "NotTokenOwner",
      "type": "error"
    },
    {
      "inputs": [
        {
          "internalType": "address",
          "name": "owner",
          "type": "address"
        }
      ],
      "name": "OwnableInvalidOwner",
      "type": "error"
    },
    {
      "inputs": [
        {
          "internalType": "address",
          "name": "account",
          "type": "address"
        }
      ],
      "name": "OwnableUnauthorizedAccount",
      "type": "error"
    },
    {
      "inputs": [],
      "name": "ReentrancyGuardReentrantCall",
      "type": "error"
    },
    {
      "inputs": [
        {
          "internalType": "address",
          "name": "token",
          "type": "address"
        }
      ],
      "name": "SafeERC20FailedOperation",
      "type": "error"
    },
    {
      "inputs": [],
      "name": "TokenNotForSale",
      "type": "error"
    },
    {
      "inputs": [],
      "name": "TokenTransferFailed",
      "type": "error"
    },
    {
      "anonymous": false,
      "inputs": [
        {
          "indexed": true,
          "internalType": "address",
          "name": "owner",
          "type": "address"
        },
        {
          "indexed": true,
          "internalType": "address",
          "name": "approved",
          "type": "address"
        },
        {
          "indexed": true,
          "internalType": "uint256",
          "name": "tokenId",
          "type": "uint256"
        }
      ],
      "name": "Approval",
      "type": "event"
    },
    {
      "anonymous": false,
      "inputs": [
        {
          "indexed": true,
          "internalType": "address",
          "name": "owner",
          "type": "address"
        },
        {
          "indexed": true,
          "internalType": "address",
          "name": "operator",
          "type": "address"
        },
        {
          "indexed": false,
          "internalType": "bool",
          "name": "approved",
          "type": "bool"
        }
      ],
      "name": "ApprovalForAll",
      "type": "event"
    },
    {
      "anonymous": false,
      "inputs": [
        {
          "indexed": false,
          "internalType": "uint256",
          "name": "_fromTokenId",
          "type": "uint256"
        },
        {
          "indexed": false,
          "internalType": "uint256",
          "name": "_toTokenId",
          "type": "uint256"
        }
      ],
      "name": "BatchMetadataUpdate",
      "type": "event"
    },
    {
      "anonymous": false,
      "inputs": [
        {
          "indexed": false,
          "internalType": "address",
          "name": "token",
          "type": "address"
        },
        {
          "indexed": false,
          "internalType": "uint256",
          "name": "amount",
          "type": "uint256"
        }
      ],
      "name": "EmergencyWithdrawExecuted",
      "type": "event"
    },
    {
      "anonymous": false,
      "inputs": [
        {
          "indexed": false,
          "internalType": "uint256",
          "name": "timestamp",
          "type": "uint256"
        }
      ],
      "name": "EmergencyWithdrawInitiated",
      "type": "event"
    },
    {
      "anonymous": false,
      "inputs": [
        {
          "indexed": false,
          "internalType": "address",
          "name": "oldRecipient",
          "type": "address"
        },
        {
          "indexed": false,
          "internalType": "address",
          "name": "newRecipient",
          "type": "address"
        }
      ],
      "name": "FeeRecipientUpdated",
      "type": "event"
    },
    {
      "anonymous": false,
      "inputs": [
        {
          "indexed": false,
          "internalType": "uint256",
          "name": "oldPrice",
          "type": "uint256"
        },
        {
          "indexed": false,
          "internalType": "uint256",
          "name": "newPrice",
          "type": "uint256"
        }
      ],
      "name": "ListingPriceUpdated",
      "type": "event"
    },
    {
      "anonymous": false,
      "inputs": [
        {
          "indexed": true,
          "internalType": "uint256",
          "name": "tokenId",
          "type": "uint256"
        },
        {
          "indexed": true,
          "internalType": "address",
          "name": "seller",
          "type": "address"
        },
        {
          "indexed": true,
          "internalType": "address",
          "name": "owner",
          "type": "address"
        },
        {
          "indexed": false,
          "internalType": "uint256",
          "name": "ethPrice",
          "type": "uint256"
        },
        {
          "indexed": false,
          "internalType": "uint256",
          "name": "usdcPrice",
          "type": "uint256"
        },
        {
          "indexed": false,
          "internalType": "uint256",
          "name": "usdtPrice",
          "type": "uint256"
        },
        {
          "indexed": false,
          "internalType": "uint256",
          "name": "royaltyPercentage",
          "type": "uint256"
        },
        {
          "indexed": false,
          "internalType": "address",
          "name": "royaltyRecipient",
          "type": "address"
        },
        {
          "indexed": false,
          "internalType": "uint256",
          "name": "timestamp",
          "type": "uint256"
        }
      ],
      "name": "MarketItemCreated",
      "type": "event"
    },
    {
      "anonymous": false,
      "inputs": [
        {
          "indexed": true,
          "internalType": "uint256",
          "name": "tokenId",
          "type": "uint256"
        },
        {
          "indexed": true,
          "internalType": "address",
          "name": "seller",
          "type": "address"
        },
        {
          "indexed": true,
          "internalType": "address",
          "name": "buyer",
          "type": "address"
        },
        {
          "indexed": false,
          "internalType": "uint256",
          "name": "price",
          "type": "uint256"
        },
        {
          "indexed": false,
          "internalType": "enum NFTMarketplace.PaymentToken",
          "name": "paymentToken",
          "type": "uint8"
        },
        {
          "indexed": false,
          "internalType": "uint256",
          "name": "platformFee",
          "type": "uint256"
        },
        {
          "indexed": false,
          "internalType": "uint256",
          "name": "royaltyFee",
          "type": "uint256"
        },
        {
          "indexed": false,
          "internalType": "uint256",
          "name": "timestamp",
          "type": "uint256"
        }
      ],
      "name": "MarketItemSold",
      "type": "event"
    },
    {
      "anonymous": false,
      "inputs": [
        {
          "indexed": false,
          "internalType": "uint256",
          "name": "_tokenId",
          "type": "uint256"
        }
      ],
      "name": "MetadataUpdate",
      "type": "event"
    },
    {
      "anonymous": false,
      "inputs": [
        {
          "indexed": true,
          "internalType": "address",
          "name": "previousOwner",
          "type": "address"
        },
        {
          "indexed": true,
          "internalType": "address",
          "name": "newOwner",
          "type": "address"
        }
      ],
      "name": "OwnershipTransferred",
      "type": "event"
    },
    {
      "anonymous": false,
      "inputs": [
        {
          "indexed": false,
          "internalType": "address",
          "name": "account",
          "type": "address"
        }
      ],
      "name": "Paused",
      "type": "event"
    },
    {
      "anonymous": false,
      "inputs": [
        {
          "indexed": false,
          "internalType": "uint256",
          "name": "oldFee",
          "type": "uint256"
        },
        {
          "indexed": false,
          "internalType": "uint256",
          "name": "newFee",
          "type": "uint256"
        }
      ],
      "name": "PlatformFeeUpdated",
      "type": "event"
    },
    {
      "anonymous": false,
      "inputs": [
        {
          "indexed": true,
          "internalType": "uint256",
          "name": "tokenId",
          "type": "uint256"
        },
        {
          "indexed": false,
          "internalType": "uint256",
          "name": "ethPrice",
          "type": "uint256"
        },
        {
          "indexed": false,
          "internalType": "uint256",
          "name": "usdcPrice",
          "type": "uint256"
        },
        {
          "indexed": false,
          "internalType": "uint256",
          "name": "usdtPrice",
          "type": "uint256"
        }
      ],
      "name": "PricesUpdated",
      "type": "event"
    },
    {
      "anonymous": false,
      "inputs": [
        {
          "indexed": true,
          "internalType": "uint256",
          "name": "tokenId",
          "type": "uint256"
        },
        {
          "indexed": false,
          "internalType": "bool",
          "name": "blacklisted",
          "type": "bool"
        }
      ],
      "name": "TokenBlacklisted",
      "type": "event"
    },
    {
      "anonymous": false,
      "inputs": [
        {
          "indexed": true,
          "internalType": "address",
          "name": "from",
          "type": "address"
        },
        {
          "indexed": true,
          "internalType": "address",
          "name": "to",
          "type": "address"
        },
        {
          "indexed": true,
          "internalType": "uint256",
          "name": "tokenId",
          "type": "uint256"
        }
      ],
      "name": "Transfer",
      "type": "event"
    },
    {
      "anonymous": false,
      "inputs": [
        {
          "indexed": false,
          "internalType": "address",
          "name": "account",
          "type": "address"
        }
      ],
      "name": "Unpaused",
      "type": "event"
    },
    {
      "anonymous": false,
      "inputs": [
        {
          "indexed": true,
          "internalType": "address",
          "name": "user",
          "type": "address"
        },
        {
          "indexed": false,
          "internalType": "bool",
          "name": "blacklisted",
          "type": "bool"
        }
      ],
      "name": "UserBlacklisted",
      "type": "event"
    },
    {
      "inputs": [],
      "name": "EMERGENCY_WITHDRAW_DELAY",
      "outputs": [
        {
          "internalType": "uint256",
          "name": "",
          "type": "uint256"
        }
      ],
      "stateMutability": "view",
      "type": "function"
    },
    {
      "inputs": [],
      "name": "MAX_LISTING_PRICE",
      "outputs": [
        {
          "internalType": "uint256",
          "name": "",
          "type": "uint256"
        }
      ],
      "stateMutability": "view",
      "type": "function"
    },
    {
      "inputs": [],
      "name": "MAX_ROYALTY_PERCENTAGE",
      "outputs": [
        {
          "internalType": "uint256",
          "name": "",
          "type": "uint256"
        }
      ],
      "stateMutability": "view",
      "type": "function"
    },
    {
      "inputs": [],
      "name": "PERCENTAGE_BASE",
      "outputs": [
        {
          "internalType": "uint256",
          "name": "",
          "type": "uint256"
        }
      ],
      "stateMutability": "view",
      "type": "function"
    },
    {
      "inputs": [],
      "name": "USDC",
      "outputs": [
        {
          "internalType": "contract IERC20",
          "name": "",
          "type": "address"
        }
      ],
      "stateMutability": "view",
      "type": "function"
    },
    {
      "inputs": [],
      "name": "USDT",
      "outputs": [
        {
          "internalType": "contract IERC20",
          "name": "",
          "type": "address"
        }
      ],
      "stateMutability": "view",
      "type": "function"
    },
    {
      "inputs": [
        {
          "internalType": "address",
          "name": "to",
          "type": "address"
        },
        {
          "internalType": "uint256",
          "name": "tokenId",
          "type": "uint256"
        }
      ],
      "name": "approve",
      "outputs": [],
      "stateMutability": "nonpayable",
      "type": "function"
    },
    {
      "inputs": [
        {
          "internalType": "address",
          "name": "owner",
          "type": "address"
        }
      ],
      "name": "balanceOf",
      "outputs": [
        {
          "internalType": "uint256",
          "name": "",
          "type": "uint256"
        }
      ],
      "stateMutability": "view",
      "type": "function"
    },
    {
      "inputs": [
        {
          "internalType": "uint256",
          "name": "",
          "type": "uint256"
        }
      ],
      "name": "blacklistedTokens",
      "outputs": [
        {
          "internalType": "bool",
          "name": "",
          "type": "bool"
        }
      ],
      "stateMutability": "view",
      "type": "function"
    },
    {
      "inputs": [
        {
          "internalType": "address",
          "name": "",
          "type": "address"
        }
      ],
      "name": "blacklistedUsers",
      "outputs": [
        {
          "internalType": "bool",
          "name": "",
          "type": "bool"
        }
      ],
      "stateMutability": "view",
      "type": "function"
    },
    {
      "inputs": [],
      "name": "cancelEmergencyWithdraw",
      "outputs": [],
      "stateMutability": "nonpayable",
      "type": "function"
    },
    {
      "inputs": [
        {
          "internalType": "uint256",
          "name": "tokenId",
          "type": "uint256"
        }
      ],
      "name": "createMarketSaleETH",
      "outputs": [],
      "stateMutability": "payable",
      "type": "function"
    },
    {
      "inputs": [
        {
          "internalType": "uint256",
          "name": "tokenId",
          "type": "uint256"
        }
      ],
      "name": "createMarketSaleUSDC",
      "outputs": [],
      "stateMutability": "nonpayable",
      "type": "function"
    },
    {
      "inputs": [
        {
          "internalType": "uint256",
          "name": "tokenId",
          "type": "uint256"
        }
      ],
      "name": "createMarketSaleUSDT",
      "outputs": [],
      "stateMutability": "nonpayable",
      "type": "function"
    },
    {
      "inputs": [
        {
          "internalType": "string",
          "name": "tokenURI",
          "type": "string"
        },
        {
          "components": [
            {
              "internalType": "uint256",
              "name": "ethPrice",
              "type": "uint256"
            },
            {
              "internalType": "uint256",
              "name": "usdcPrice",
              "type": "uint256"
            },
            {
              "internalType": "uint256",
              "name": "usdtPrice",
              "type": "uint256"
            }
          ],
          "internalType": "struct NFTMarketplace.TokenPrices",
          "name": "prices",
          "type": "tuple"
        },
        {
          "internalType": "uint256",
          "name": "royaltyPercentage",
          "type": "uint256"
        },
        {
          "internalType": "address",
          "name": "royaltyRecipient",
          "type": "address"
        }
      ],
      "name": "createToken",
      "outputs": [
        {
          "internalType": "uint256",
          "name": "",
          "type": "uint256"
        }
      ],
      "stateMutability": "payable",
      "type": "function"
    },
    {
      "inputs": [],
      "name": "emergencyWithdrawETH",
      "outputs": [],
      "stateMutability": "nonpayable",
      "type": "function"
    },
    {
      "inputs": [],
      "name": "emergencyWithdrawEnabled",
      "outputs": [
        {
          "internalType": "bool",
          "name": "",
          "type": "bool"
        }
      ],
      "stateMutability": "view",
      "type": "function"
    },
    {
      "inputs": [],
      "name": "emergencyWithdrawTimestamp",
      "outputs": [
        {
          "internalType": "uint256",
          "name": "",
          "type": "uint256"
        }
      ],
      "stateMutability": "view",
      "type": "function"
    },
    {
      "inputs": [
        {
          "internalType": "contract IERC20",
          "name": "token",
          "type": "address"
        }
      ],
      "name": "emergencyWithdrawToken",
      "outputs": [],
      "stateMutability": "nonpayable",
      "type": "function"
    },
    {
      "inputs": [],
      "name": "feeRecipient",
      "outputs": [
        {
          "internalType": "address",
          "name": "",
          "type": "address"
        }
      ],
      "stateMutability": "view",
      "type": "function"
    },
    {
      "inputs": [],
      "name": "fetchItemsListed",
      "outputs": [
        {
          "components": [
            {
              "internalType": "uint256",
              "name": "tokenId",
              "type": "uint256"
            },
            {
              "internalType": "address payable",
              "name": "seller",
              "type": "address"
            },
            {
              "internalType": "address payable",
              "name": "owner",
              "type": "address"
            },
            {
              "internalType": "uint256",
              "name": "ethPrice",
              "type": "uint256"
            },
            {
              "internalType": "uint256",
              "name": "usdcPrice",
              "type": "uint256"
            },
            {
              "internalType": "uint256",
              "name": "usdtPrice",
              "type": "uint256"
            },
            {
              "internalType": "bool",
              "name": "sold",
              "type": "bool"
            },
            {
              "internalType": "uint256",
              "name": "listedAt",
              "type": "uint256"
            },
            {
              "internalType": "uint256",
              "name": "royaltyPercentage",
              "type": "uint256"
            },
            {
              "internalType": "address",
              "name": "royaltyRecipient",
              "type": "address"
            }
          ],
          "internalType": "struct NFTMarketplace.MarketItem[]",
          "name": "",
          "type": "tuple[]"
        }
      ],
      "stateMutability": "view",
      "type": "function"
    },
    {
      "inputs": [],
      "name": "fetchMarketItems",
      "outputs": [
        {
          "components": [
            {
              "internalType": "uint256",
              "name": "tokenId",
              "type": "uint256"
            },
            {
              "internalType": "address payable",
              "name": "seller",
              "type": "address"
            },
            {
              "internalType": "address payable",
              "name": "owner",
              "type": "address"
            },
            {
              "internalType": "uint256",
              "name": "ethPrice",
              "type": "uint256"
            },
            {
              "internalType": "uint256",
              "name": "usdcPrice",
              "type": "uint256"
            },
            {
              "internalType": "uint256",
              "name": "usdtPrice",
              "type": "uint256"
            },
            {
              "internalType": "bool",
              "name": "sold",
              "type": "bool"
            },
            {
              "internalType": "uint256",
              "name": "listedAt",
              "type": "uint256"
            },
            {
              "internalType": "uint256",
              "name": "royaltyPercentage",
              "type": "uint256"
            },
            {
              "internalType": "address",
              "name": "royaltyRecipient",
              "type": "address"
            }
          ],
          "internalType": "struct NFTMarketplace.MarketItem[]",
          "name": "",
          "type": "tuple[]"
        }
      ],
      "stateMutability": "view",
      "type": "function"
    },
    {
      "inputs": [],
      "name": "fetchMyNFTs",
      "outputs": [
        {
          "components": [
            {
              "internalType": "uint256",
              "name": "tokenId",
              "type": "uint256"
            },
            {
              "internalType": "address payable",
              "name": "seller",
              "type": "address"
            },
            {
              "internalType": "address payable",
              "name": "owner",
              "type": "address"
            },
            {
              "internalType": "uint256",
              "name": "ethPrice",
              "type": "uint256"
            },
            {
              "internalType": "uint256",
              "name": "usdcPrice",
              "type": "uint256"
            },
            {
              "internalType": "uint256",
              "name": "usdtPrice",
              "type": "uint256"
            },
            {
              "internalType": "bool",
              "name": "sold",
              "type": "bool"
            },
            {
              "internalType": "uint256",
              "name": "listedAt",
              "type": "uint256"
            },
            {
              "internalType": "uint256",
              "name": "royaltyPercentage",
              "type": "uint256"
            },
            {
              "internalType": "address",
              "name": "royaltyRecipient",
              "type": "address"
            }
          ],
          "internalType": "struct NFTMarketplace.MarketItem[]",
          "name": "",
          "type": "tuple[]"
        }
      ],
      "stateMutability": "view",
      "type": "function"
    },
    {
      "inputs": [
        {
          "internalType": "uint256",
          "name": "tokenId",
          "type": "uint256"
        }
      ],
      "name": "getApproved",
      "outputs": [
        {
          "internalType": "address",
          "name": "",
          "type": "address"
        }
      ],
      "stateMutability": "view",
      "type": "function"
    },
    {
      "inputs": [],
      "name": "getListingPrice",
      "outputs": [
        {
          "internalType": "uint256",
          "name": "",
          "type": "uint256"
        }
      ],
      "stateMutability": "view",
      "type": "function"
    },
    {
      "inputs": [
        {
          "internalType": "uint256",
          "name": "tokenId",
          "type": "uint256"
        }
      ],
      "name": "getMarketItem",
      "outputs": [
        {
          "components": [
            {
              "internalType": "uint256",
              "name": "tokenId",
              "type": "uint256"
            },
            {
              "internalType": "address payable",
              "name": "seller",
              "type": "address"
            },
            {
              "internalType": "address payable",
              "name": "owner",
              "type": "address"
            },
            {
              "internalType": "uint256",
              "name": "ethPrice",
              "type": "uint256"
            },
            {
              "internalType": "uint256",
              "name": "usdcPrice",
              "type": "uint256"
            },
            {
              "internalType": "uint256",
              "name": "usdtPrice",
              "type": "uint256"
            },
            {
              "internalType": "bool",
              "name": "sold",
              "type": "bool"
            },
            {
              "internalType": "uint256",
              "name": "listedAt",
              "type": "uint256"
            },
            {
              "internalType": "uint256",
              "name": "royaltyPercentage",
              "type": "uint256"
            },
            {
              "internalType": "address",
              "name": "royaltyRecipient",
              "type": "address"
            }
          ],
          "internalType": "struct NFTMarketplace.MarketItem",
          "name": "",
          "type": "tuple"
        }
      ],
      "stateMutability": "view",
      "type": "function"
    },
    {
      "inputs": [
        {
          "internalType": "enum NFTMarketplace.PaymentToken",
          "name": "token",
          "type": "uint8"
        }
      ],
      "name": "getTokenListingFee",
      "outputs": [
        {
          "internalType": "uint256",
          "name": "",
          "type": "uint256"
        }
      ],
      "stateMutability": "view",
      "type": "function"
    },
    {
      "inputs": [],
      "name": "getTotalItemsSold",
      "outputs": [
        {
          "internalType": "uint256",
          "name": "",
          "type": "uint256"
        }
      ],
      "stateMutability": "view",
      "type": "function"
    },
    {
      "inputs": [],
      "name": "getTotalTokens",
      "outputs": [
        {
          "internalType": "uint256",
          "name": "",
          "type": "uint256"
        }
      ],
      "stateMutability": "view",
      "type": "function"
    },
    {
      "inputs": [],
      "name": "initiateEmergencyWithdraw",
      "outputs": [],
      "stateMutability": "nonpayable",
      "type": "function"
    },
    {
      "inputs": [
        {
          "internalType": "address",
          "name": "owner",
          "type": "address"
        },
        {
          "internalType": "address",
          "name": "operator",
          "type": "address"
        }
      ],
      "name": "isApprovedForAll",
      "outputs": [
        {
          "internalType": "bool",
          "name": "",
          "type": "bool"
        }
      ],
      "stateMutability": "view",
      "type": "function"
    },
    {
      "inputs": [],
      "name": "listingPrice",
      "outputs": [
        {
          "internalType": "uint256",
          "name": "",
          "type": "uint256"
        }
      ],
      "stateMutability": "view",
      "type": "function"
    },
    {
      "inputs": [],
      "name": "name",
      "outputs": [
        {
          "internalType": "string",
          "name": "",
          "type": "string"
        }
      ],
      "stateMutability": "view",
      "type": "function"
    },
    {
      "inputs": [],
      "name": "owner",
      "outputs": [
        {
          "internalType": "address",
          "name": "",
          "type": "address"
        }
      ],
      "stateMutability": "view",
      "type": "function"
    },
    {
      "inputs": [
        {
          "internalType": "uint256",
          "name": "tokenId",
          "type": "uint256"
        }
      ],
      "name": "ownerOf",
      "outputs": [
        {
          "internalType": "address",
          "name": "",
          "type": "address"
        }
      ],
      "stateMutability": "view",
      "type": "function"
    },
    {
      "inputs": [],
      "name": "pause",
      "outputs": [],
      "stateMutability": "nonpayable",
      "type": "function"
    },
    {
      "inputs": [],
      "name": "paused",
      "outputs": [
        {
          "internalType": "bool",
          "name": "",
          "type": "bool"
        }
      ],
      "stateMutability": "view",
      "type": "function"
    },
    {
      "inputs": [],
      "name": "platformFeePercentage",
      "outputs": [
        {
          "internalType": "uint256",
          "name": "",
          "type": "uint256"
        }
      ],
      "stateMutability": "view",
      "type": "function"
    },
    {
      "inputs": [],
      "name": "renounceOwnership",
      "outputs": [],
      "stateMutability": "nonpayable",
      "type": "function"
    },
    {
      "inputs": [
        {
          "internalType": "uint256",
          "name": "tokenId",
          "type": "uint256"
        },
        {
          "components": [
            {
              "internalType": "uint256",
              "name": "ethPrice",
              "type": "uint256"
            },
            {
              "internalType": "uint256",
              "name": "usdcPrice",
              "type": "uint256"
            },
            {
              "internalType": "uint256",
              "name": "usdtPrice",
              "type": "uint256"
            }
          ],
          "internalType": "struct NFTMarketplace.TokenPrices",
          "name": "prices",
          "type": "tuple"
        }
      ],
      "name": "resellToken",
      "outputs": [],
      "stateMutability": "payable",
      "type": "function"
    },
    {
      "inputs": [
        {
          "internalType": "uint256",
          "name": "tokenId",
          "type": "uint256"
        },
        {
          "internalType": "uint256",
          "name": "salePrice",
          "type": "uint256"
        }
      ],
      "name": "royaltyInfo",
      "outputs": [
        {
          "internalType": "address",
          "name": "receiver",
          "type": "address"
        },
        {
          "internalType": "uint256",
          "name": "royaltyAmount",
          "type": "uint256"
        }
      ],
      "stateMutability": "view",
      "type": "function"
    },
    {
      "inputs": [
        {
          "internalType": "address",
          "name": "from",
          "type": "address"
        },
        {
          "internalType": "address",
          "name": "to",
          "type": "address"
        },
        {
          "internalType": "uint256",
          "name": "tokenId",
          "type": "uint256"
        }
      ],
      "name": "safeTransferFrom",
      "outputs": [],
      "stateMutability": "nonpayable",
      "type": "function"
    },
    {
      "inputs": [
        {
          "internalType": "address",
          "name": "from",
          "type": "address"
        },
        {
          "internalType": "address",
          "name": "to",
          "type": "address"
        },
        {
          "internalType": "uint256",
          "name": "tokenId",
          "type": "uint256"
        },
        {
          "internalType": "bytes",
          "name": "data",
          "type": "bytes"
        }
      ],
      "name": "safeTransferFrom",
      "outputs": [],
      "stateMutability": "nonpayable",
      "type": "function"
    },
    {
      "inputs": [
        {
          "internalType": "address",
          "name": "operator",
          "type": "address"
        },
        {
          "internalType": "bool",
          "name": "approved",
          "type": "bool"
        }
      ],
      "name": "setApprovalForAll",
      "outputs": [],
      "stateMutability": "nonpayable",
      "type": "function"
    },
    {
      "inputs": [
        {
          "internalType": "uint256",
          "name": "tokenId",
          "type": "uint256"
        },
        {
          "internalType": "bool",
          "name": "blacklisted",
          "type": "bool"
        }
      ],
      "name": "setTokenBlacklisted",
      "outputs": [],
      "stateMutability": "nonpayable",
      "type": "function"
    },
    {
      "inputs": [
        {
          "internalType": "address",
          "name": "user",
          "type": "address"
        },
        {
          "internalType": "bool",
          "name": "blacklisted",
          "type": "bool"
        }
      ],
      "name": "setUserBlacklisted",
      "outputs": [],
      "stateMutability": "nonpayable",
      "type": "function"
    },
    {
      "inputs": [
        {
          "internalType": "bytes4",
          "name": "interfaceId",
          "type": "bytes4"
        }
      ],
      "name": "supportsInterface",
      "outputs": [
        {
          "internalType": "bool",
          "name": "",
          "type": "bool"
        }
      ],
      "stateMutability": "view",
      "type": "function"
    },
    {
      "inputs": [],
      "name": "symbol",
      "outputs": [
        {
          "internalType": "string",
          "name": "",
          "type": "string"
        }
      ],
      "stateMutability": "view",
      "type": "function"
    },
    {
      "inputs": [
        {
          "internalType": "enum NFTMarketplace.PaymentToken",
          "name": "",
          "type": "uint8"
        }
      ],
      "name": "tokenListingFees",
      "outputs": [
        {
          "internalType": "uint256",
          "name": "",
          "type": "uint256"
        }
      ],
      "stateMutability": "view",
      "type": "function"
    },
    {
      "inputs": [
        {
          "internalType": "uint256",
          "name": "tokenId",
          "type": "uint256"
        }
      ],
      "name": "tokenURI",
      "outputs": [
        {
          "internalType": "string",
          "name": "",
          "type": "string"
        }
      ],
      "stateMutability": "view",
      "type": "function"
    },
    {
      "inputs": [
        {
          "internalType": "address",
          "name": "from",
          "type": "address"
        },
        {
          "internalType": "address",
          "name": "to",
          "type": "address"
        },
        {
          "internalType": "uint256",
          "name": "tokenId",
          "type": "uint256"
        }
      ],
      "name": "transferFrom",
      "outputs": [],
      "stateMutability": "nonpayable",
      "type": "function"
    },
    {
      "inputs": [
        {
          "internalType": "address",
          "name": "newOwner",
          "type": "address"
        }
      ],
      "name": "transferOwnership",
      "outputs": [],
      "stateMutability": "nonpayable",
      "type": "function"
    },
    {
      "inputs": [],
      "name": "unpause",
      "outputs": [],
      "stateMutability": "nonpayable",
      "type": "function"
    },
    {
      "inputs": [
        {
          "internalType": "address",
          "name": "_feeRecipient",
          "type": "address"
        }
      ],
      "name": "updateFeeRecipient",
      "outputs": [],
      "stateMutability": "nonpayable",
      "type": "function"
    },
    {
      "inputs": [
        {
          "internalType": "uint256",
          "name": "tokenId",
          "type": "uint256"
        },
        {
          "components": [
            {
              "internalType": "uint256",
              "name": "ethPrice",
              "type": "uint256"
            },
            {
              "internalType": "uint256",
              "name": "usdcPrice",
              "type": "uint256"
            },
            {
              "internalType": "uint256",
              "name": "usdtPrice",
              "type": "uint256"
            }
          ],
          "internalType": "struct NFTMarketplace.TokenPrices",
          "name": "prices",
          "type": "tuple"
        }
      ],
      "name": "updateItemPrices",
      "outputs": [],
      "stateMutability": "nonpayable",
      "type": "function"
    },
    {
      "inputs": [
        {
          "internalType": "uint256",
          "name": "_listingPrice",
          "type": "uint256"
        }
      ],
      "name": "updateListingPrice",
      "outputs": [],
      "stateMutability": "nonpayable",
      "type": "function"
    },
    {
      "inputs": [
        {
          "internalType": "uint256",
          "name": "_platformFeePercentage",
          "type": "uint256"
        }
      ],
      "name": "updatePlatformFee",
      "outputs": [],
      "stateMutability": "nonpayable",
      "type": "function"
    },
    {
      "inputs": [
        {
          "internalType": "enum NFTMarketplace.PaymentToken",
          "name": "token",
          "type": "uint8"
        },
        {
          "internalType": "uint256",
          "name": "fee",
          "type": "uint256"
        }
      ],
      "name": "updateTokenListingFee",
      "outputs": [],
      "stateMutability": "nonpayable",
      "type": "function"
    },
    {
      "inputs": [],
      "name": "usdcAddress",
      "outputs": [
        {
          "internalType": "address",
          "name": "",
          "type": "address"
        }
      ],
      "stateMutability": "view",
      "type": "function"
    },
    {
      "inputs": [],
      "name": "usdtAddress",
      "outputs": [
        {
          "internalType": "address",
          "name": "",
          "type": "address"
        }
      ],
      "stateMutability": "view",
      "type": "function"
    },
    {
      "stateMutability": "payable",
      "type": "receive"
    }
  ],
  "bytecode": "0x61010060405266038d7ea4c68000600b5560fa600c55600d805460ff60a01b191690553480156200002f57600080fd5b506040516200425338038062004253833981016040819052620000529162000315565b338282600062000063838262000447565b50600162000072828262000447565b50506001600755506001600160a01b038116620000a957604051631e4fbdf760e01b81526000600482015260240160405180910390fd5b620000b481620001d9565b506001600160a01b0385161580620000d357506001600160a01b038416155b15620000f25760405163e6c4247b60e01b815260040160405180910390fd5b6001600160a01b0383166200011a5760405163e6c4247b60e01b815260040160405180910390fd5b50506001600160a01b0392831660c081905291831660e081905260809290925260a091909152600d80546001600160a01b03191691909216179055601260205266038d7ea4c680007f7e7fa33969761a458e04f477e039a608702b4f924981d6653935a8319a08ad7b55620f42407f71a67924699a20698523213e55fe499d539379d7769cd5567e2c45d583f815a381905560026000527f8e1fee8c88a9e04123b21e90cae2727a7715bf522a1e46eb5934ccd05203a6b25562000513565b600880546001600160a01b03838116610100818102610100600160a81b031985161790945560405193909204169182907f8be0079c531659141344cd1fd0a4f28419497f9722a3daafe3b4186f6b6457e090600090a35050565b80516001600160a01b03811681146200024b57600080fd5b919050565b634e487b7160e01b600052604160045260246000fd5b600082601f8301126200027857600080fd5b81516001600160401b038082111562000295576200029562000250565b604051601f8301601f19908116603f01168101908282118183101715620002c057620002c062000250565b81604052838152602092508683858801011115620002dd57600080fd5b600091505b83821015620003015785820183015181830184015290820190620002e2565b600093810190920192909252949350505050565b600080600080600060a086880312156200032e57600080fd5b620003398662000233565b9450620003496020870162000233565b9350620003596040870162000233565b60608701519093506001600160401b03808211156200037757600080fd5b6200038589838a0162000266565b935060808801519150808211156200039c57600080fd5b50620003ab8882890162000266565b9150509295509295909350565b600181811c90821680620003cd57607f821691505b602082108103620003ee57634e487b7160e01b600052602260045260246000fd5b50919050565b601f8211156200044257600081815260208120601f850160051c810160208610156200041d5750805b601f850160051c820191505b818110156200043e5782815560010162000429565b5050505b505050565b81516001600160401b0381111562000463576200046362000250565b6200047b81620004748454620003b8565b84620003f4565b602080601f831160018114620004b357600084156200049a5750858301515b600019600386901b1c1916600185901b1785556200043e565b600085815260208120601f198616915b82811015620004e457888601518255948401946001909101908401620004c3565b5085821015620005035787850151600019600388901b60f8161c191681555b5050505050600190811b01905550565b60805160a05160c05160e051613cf86200055b6000396000610844015260006103ee01526000818161098d01526118ec0152600081816107d801526114da0152613cf86000f3fe60806040526004361061039b5760003560e01c806387b01029116101dc578063c435d1e711610102578063ce959c13116100a0578063f08b82e61161006f578063f08b82e614610ab7578063f160d36914610acc578063f2fde38b14610aec578063fa57f48714610b0c57600080fd5b8063ce959c1314610a48578063d69738dc14610a5b578063d89fa76d14610a7b578063e985e9c514610a9757600080fd5b8063c78f19f9116100dc578063c78f19f9146109cf578063c7be7a49146109e5578063c87b56dd14610a12578063cdd78cfc14610a3257600080fd5b8063c435d1e714610968578063c54e44eb1461097b578063c5d2a67d146109af57600080fd5b8063a47b81d81161017a578063ae677aa311610149578063ae677aa3146108e8578063b88d4fde14610908578063bddb7c8314610928578063c06a1d671461094857600080fd5b8063a47b81d814610886578063a9225d1b1461089d578063aa0b5988146108b3578063ac856cea146108d357600080fd5b80638da5cb5b116101b65780638da5cb5b146107fa57806395d89b411461081d5780639ab4a44514610832578063a22cb4651461086657600080fd5b806387b010291461079057806387c13943146107b057806389a30271146107c657600080fd5b806342842e0e116102c15780636575cbd31161025f578063845360171161022e57806384536017146107315780638456cb59146107465780638590828e1461075b578063877bf83d1461077b57600080fd5b80636575cbd3146106ba578063683131c9146106e757806370a08231146106fc578063715018a61461071c57600080fd5b80634e98e27b1161029b5780634e98e27b146106415780635747e69f146106615780635c975abb146106825780636352211e1461069a57600080fd5b806342842e0e146105ec57806345f8fa801461060c578063469048401461062157600080fd5b80631af032031161033957806323b872dd1161030857806323b872dd1461054857806328c56b99146105685780632a55205a146105985780633f4ba83a146105d757600080fd5b80631af03203146104cd578063202e3740146104ed57806322c0aec71461050257806323383e8a1461053257600080fd5b8063081812fc11610375578063081812fc1461044a578063095ea7b31461046a5780630f08efe01461048c57806312e85585146104ae57600080fd5b806301ffc9a7146103a757806302d45457146103dc57806306fdde031461042857600080fd5b366103a257005b600080fd5b3480156103b357600080fd5b506103c76103c2366004613456565b610b1f565b60405190151581526020015b60405180910390f35b3480156103e857600080fd5b506104107f000000000000000000000000000000000000000000000000000000000000000081565b6040516001600160a01b0390911681526020016103d3565b34801561043457600080fd5b5061043d610b4a565b6040516103d391906134c3565b34801561045657600080fd5b506104106104653660046134d6565b610bdc565b34801561047657600080fd5b5061048a610485366004613504565b610c05565b005b34801561049857600080fd5b506104a1610c14565b6040516103d391906135cb565b3480156104ba57600080fd5b50600b545b6040519081526020016103d3565b3480156104d957600080fd5b5061048a6104e836600461361a565b610dad565b3480156104f957600080fd5b506104a1610ee2565b34801561050e57600080fd5b506103c761051d36600461361a565b60106020526000908152604090205460ff1681565b34801561053e57600080fd5b506104bf600e5481565b34801561055457600080fd5b5061048a610563366004613637565b6110c9565b34801561057457600080fd5b506103c76105833660046134d6565b60116020526000908152604090205460ff1681565b3480156105a457600080fd5b506105b86105b3366004613678565b611159565b604080516001600160a01b0390931683526020830191909152016103d3565b3480156105e357600080fd5b5061048a611215565b3480156105f857600080fd5b5061048a610607366004613637565b611227565b34801561061857600080fd5b506104a1611247565b34801561062d57600080fd5b50600d54610410906001600160a01b031681565b34801561064d57600080fd5b5061048a61065c3660046134d6565b6113fa565b34801561066d57600080fd5b50600d546103c790600160a01b900460ff1681565b34801561068e57600080fd5b5060085460ff166103c7565b3480156106a657600080fd5b506104106106b53660046134d6565b61150f565b3480156106c657600080fd5b506104bf6106d53660046136ae565b60126020526000908152604090205481565b3480156106f357600080fd5b5061048a61151a565b34801561070857600080fd5b506104bf61071736600461361a565b611536565b34801561072857600080fd5b5061048a61157e565b34801561073d57600080fd5b5061048a611590565b34801561075257600080fd5b5061048a61164e565b34801561076757600080fd5b5061048a61077636600461373b565b61165e565b34801561078757600080fd5b50600a546104bf565b34801561079c57600080fd5b5061048a6107ab3660046134d6565b61180c565b3480156107bc57600080fd5b506104bf61271081565b3480156107d257600080fd5b506104107f000000000000000000000000000000000000000000000000000000000000000081565b34801561080657600080fd5b5060085461010090046001600160a01b0316610410565b34801561082957600080fd5b5061043d611910565b34801561083e57600080fd5b506104107f000000000000000000000000000000000000000000000000000000000000000081565b34801561087257600080fd5b5061048a610881366004613778565b61191f565b34801561089257600080fd5b506104bf62093a8081565b3480156108a957600080fd5b506104bf6103e881565b3480156108bf57600080fd5b5061048a6108ce3660046134d6565b61192a565b3480156108df57600080fd5b5061048a611993565b3480156108f457600080fd5b5061048a6109033660046134d6565b6119fc565b34801561091457600080fd5b5061048a61092336600461381a565b611a6b565b34801561093457600080fd5b5061048a610943366004613778565b611a83565b34801561095457600080fd5b506104bf6109633660046136ae565b611b14565b6104bf61097636600461389a565b611b53565b34801561098757600080fd5b506104107f000000000000000000000000000000000000000000000000000000000000000081565b3480156109bb57600080fd5b5061048a6109ca366004613919565b611c75565b3480156109db57600080fd5b506104bf600b5481565b3480156109f157600080fd5b50610a05610a003660046134d6565b611cfc565b6040516103d3919061393c565b348015610a1e57600080fd5b5061043d610a2d3660046134d6565b611dcd565b348015610a3e57600080fd5b506104bf600c5481565b61048a610a5636600461373b565b611ed6565b348015610a6757600080fd5b5061048a610a7636600461394b565b6120ce565b348015610a8757600080fd5b506104bf670de0b6b3a764000081565b348015610aa357600080fd5b506103c7610ab2366004613967565b612113565b348015610ac357600080fd5b506009546104bf565b348015610ad857600080fd5b5061048a610ae736600461361a565b612141565b348015610af857600080fd5b5061048a610b0736600461361a565b6121d3565b61048a610b1a3660046134d6565b61220e565b60006001600160e01b0319821663152a902d60e11b1480610b445750610b4482612311565b92915050565b606060008054610b59906139a0565b80601f0160208091040260200160405190810160405280929190818152602001828054610b85906139a0565b8015610bd25780601f10610ba757610100808354040283529160200191610bd2565b820191906000526020600020905b815481529060010190602001808311610bb557829003601f168201915b5050505050905090565b6000610be782612336565b506000828152600460205260409020546001600160a01b0316610b44565b610c1082823361236f565b5050565b600954600a5460609190600090610c2b90836139ea565b90506000808267ffffffffffffffff811115610c4957610c496136c9565b604051908082528060200260200182016040528015610c8257816020015b610c6f6133d0565b815260200190600190039081610c675790505b50905060015b848111610da4576000818152600f60205260409020600201546001600160a01b031630148015610cc7575060008181526011602052604090205460ff16155b15610d92576000818152600f60209081526040918290208251610140810184528154815260018201546001600160a01b039081169382019390935260028201548316938101939093526003810154606084015260048101546080840152600581015460a0840152600681015460ff16151560c0840152600781015460e0840152600881015461010084015260098101549091166101208301528351909190849086908110610d7757610d776139fd565b60200260200101819052508380610d8d90613a13565b945050505b80610d9c81613a13565b915050610c88565b50949350505050565b610db561237c565b600d54600160a01b900460ff16610ddf576040516315f44acb60e01b815260040160405180910390fd5b600e54421015610e02576040516315f44acb60e01b815260040160405180910390fd5b6040516370a0823160e01b81523060048201526000906001600160a01b038316906370a0823190602401602060405180830381865afa158015610e49573d6000803e3d6000fd5b505050506040513d601f19601f82011682018060405250810190610e6d9190613a2c565b9050610e9b610e8a6008546001600160a01b036101009091041690565b6001600160a01b03841690836123af565b604080516001600160a01b0384168152602081018390527f88093b33e04b73b206661f1eccae231d9dd839b164c5d4dd9a16160987bd802f91015b60405180910390a15050565b60095460609060008060015b838111610f52576000818152600f60205260409020600201546001600160a01b0316331480610f2d575033610f228261150f565b6001600160a01b0316145b15610f405782610f3c81613a13565b9350505b80610f4a81613a13565b915050610eee565b5060008267ffffffffffffffff811115610f6e57610f6e6136c9565b604051908082528060200260200182016040528015610fa757816020015b610f946133d0565b815260200190600190039081610f8c5790505b50905060015b848111610da4576000818152600f60205260409020600201546001600160a01b0316331480610fec575033610fe18261150f565b6001600160a01b0316145b156110b7576000818152600f60209081526040918290208251610140810184528154815260018201546001600160a01b039081169382019390935260028201548316938101939093526003810154606084015260048101546080840152600581015460a0840152600681015460ff16151560c0840152600781015460e084015260088101546101008401526009810154909116610120830152835190919084908690811061109c5761109c6139fd565b602002602001018190525083806110b290613a13565b945050505b806110c181613a13565b915050610fad565b6001600160a01b0382166110f857604051633250574960e11b8152600060048201526024015b60405180910390fd5b600061110583833361240e565b9050836001600160a01b0316816001600160a01b031614611153576040516364283d7b60e01b81526001600160a01b03808616600483015260248201849052821660448201526064016110ef565b50505050565b6000828152600f602090815260408083208151610140810183528154815260018201546001600160a01b039081169482019490945260028201548416928101929092526003810154606083015260048101546080830152600581015460a0830152600681015460ff16151560c0830152600781015460e08301526008810154610100830181905260099091015490921661012082018190529291612710906112019086613a45565b61120b9190613a5c565b9150509250929050565b61121d61237c565b611225612507565b565b61124283838360405180602001604052806000815250611a6b565b505050565b60095460609060008060015b83811161129d576000818152600f6020526040902060010154336001600160a01b039091160361128b578261128781613a13565b9350505b8061129581613a13565b915050611253565b5060008267ffffffffffffffff8111156112b9576112b96136c9565b6040519080825280602002602001820160405280156112f257816020015b6112df6133d0565b8152602001906001900390816112d75790505b50905060015b848111610da4576000818152600f6020526040902060010154336001600160a01b03909116036113e8576000818152600f60209081526040918290208251610140810184528154815260018201546001600160a01b039081169382019390935260028201548316938101939093526003810154606084015260048101546080840152600581015460a0840152600681015460ff16151560c0840152600781015460e08401526008810154610100840152600981015490911661012083015283519091908490869081106113cd576113cd6139fd565b602002602001018190525083806113e390613a13565b945050505b806113f281613a13565b9150506112f8565b611402612554565b61140a61257e565b3360009081526010602052604090205460ff161561143b5760405163d9a60d2d60e01b815260040160405180910390fd5b8060008111801561144e57506009548111155b61146a5760405162461bcd60e51b81526004016110ef90613a7e565b600082815260116020526040902054829060ff161561149c5760405163091867bd60e11b815260040160405180910390fd5b6000838152600f60205260408120600481015490918190036114d15760405163037eff1360e21b815260040160405180910390fd5b6114fe858260017f00000000000000000000000000000000000000000000000000000000000000006125a2565b5050505061150c6001600755565b50565b6000610b4482612336565b61152261237c565b600d805460ff60a01b191690556000600e55565b60006001600160a01b038216611562576040516322718ad960e21b8152600060048201526024016110ef565b506001600160a01b031660009081526003602052604090205490565b61158661237c565b611225600061272c565b61159861237c565b600d54600160a01b900460ff166115c2576040516315f44acb60e01b815260040160405180910390fd5b600e544210156115e5576040516315f44acb60e01b815260040160405180910390fd5b47611611816116026008546001600160a01b036101009091041690565b6001600160a01b031690612786565b6040805160008152602081018390527f88093b33e04b73b206661f1eccae231d9dd839b164c5d4dd9a16160987bd802f910160405180910390a150565b61165661237c565b611225612816565b611666612554565b61166e61257e565b3360009081526010602052604090205460ff161561169f5760405163d9a60d2d60e01b815260040160405180910390fd5b816000811180156116b257506009548111155b6116ce5760405162461bcd60e51b81526004016110ef90613a7e565b600083815260116020526040902054839060ff16156117005760405163091867bd60e11b815260040160405180910390fd5b6000848152600f6020526040902060018101546001600160a01b0316331461173b57604051633aa1064360e01b815260040160405180910390fd5b600681015460ff16156117615760405163037eff1360e21b815260040160405180910390fd5b835115801561177257506020840151155b801561178057506040840151155b1561179d5760405162bfc92160e01b815260040160405180910390fd5b835160038201819055602080860151600484018190556040808801516005860181905581519485529284019190915282015285907f6ef2ff813efc9efc76792366c4aca2677b755a5a13affc54d96ef35dc8e9bb73906060015b60405180910390a2505050610c106001600755565b611814612554565b61181c61257e565b3360009081526010602052604090205460ff161561184d5760405163d9a60d2d60e01b815260040160405180910390fd5b8060008111801561186057506009548111155b61187c5760405162461bcd60e51b81526004016110ef90613a7e565b600082815260116020526040902054829060ff16156118ae5760405163091867bd60e11b815260040160405180910390fd5b6000838152600f60205260408120600581015490918190036118e35760405163037eff1360e21b815260040160405180910390fd5b6114fe858260027f00000000000000000000000000000000000000000000000000000000000000006125a2565b606060018054610b59906139a0565b610c10338383612853565b61193261237c565b6103e88111156119555760405163183440b760e31b815260040160405180910390fd5b600c80549082905560408051828152602081018490527fd347e206f25a89b917fc9482f1a2d294d749baa4dc9bde7fb495ee11fe4916439101610ed6565b61199b61237c565b6119a862093a8042613aac565b600e819055600d805460ff60a01b1916600160a01b1790556040517f3cdaaaa0889822285645e1c79bcbd834c5dd93816b66671ab5a743ac0c53358e916119f29190815260200190565b60405180910390a1565b611a0461237c565b670de0b6b3a7640000811115611a2d5760405163fc15c67960e01b815260040160405180910390fd5b600b80549082905560408051828152602081018490527f522acc74fb3f21f3b09a9a4667b5faba86eb39c7f6b916a64f9114e68765abb49101610ed6565b611a768484846110c9565b61115333858585856128f2565b611a8b61237c565b816001600160a01b038116611ab35760405163e6c4247b60e01b815260040160405180910390fd5b6001600160a01b038316600081815260106020908152604091829020805460ff191686151590811790915591519182527f5b7ef9d8e7fd7ff1dae13005391bc3aa7cc048c7ba41af348e5da4dcbe7323e091015b60405180910390a2505050565b600060126000836002811115611b2c57611b2c613abf565b6002811115611b3d57611b3d613abf565b8152602001908152602001600020549050919050565b6000611b5d612554565b611b6561257e565b3360009081526010602052604090205460ff1615611b965760405163d9a60d2d60e01b815260040160405180910390fd5b600b543414611bb85760405163fc15c67960e01b815260040160405180910390fd5b8351158015611bc957506020840151155b8015611bd757506040840151155b15611bf45760405162bfc92160e01b815260040160405180910390fd5b6103e8831115611c175760405163134aed6960e21b815260040160405180910390fd5b6001600160a01b038216611c29573391505b60098054906000611c3983613a13565b9091555050600954611c4b3382612a1d565b611c558187612a82565b611c6181868686612acb565b9050611c6d6001600755565b949350505050565b611c7d61237c565b81600081118015611c9057506009548111155b611cac5760405162461bcd60e51b81526004016110ef90613a7e565b600083815260116020908152604091829020805460ff1916851515908117909155915191825284917f58d9f8973124d959b72fcdfaa4b86d50fe32d266399ceffcbcfb45794ecadec79101611b07565b611d046133d0565b81600081118015611d1757506009548111155b611d335760405162461bcd60e51b81526004016110ef90613a7e565b6000838152600f60209081526040918290208251610140810184528154815260018201546001600160a01b039081169382019390935260028201548316938101939093526003810154606084015260048101546080840152600581015460a0840152600681015460ff16151560c0840152600781015460e08401526008810154610100840152600901541661012082015291505b50919050565b6060611dd882612336565b5060008281526006602052604081208054611df2906139a0565b80601f0160208091040260200160405190810160405280929190818152602001828054611e1e906139a0565b8015611e6b5780601f10611e4057610100808354040283529160200191611e6b565b820191906000526020600020905b815481529060010190602001808311611e4e57829003601f168201915b505050505090506000611e8960408051602081019091526000815290565b90508051600003611e9b575092915050565b815115611ecd578082604051602001611eb5929190613ad5565b60405160208183030381529060405292505050919050565b611c6d84612cb3565b611ede612554565b611ee661257e565b3360009081526010602052604090205460ff1615611f175760405163d9a60d2d60e01b815260040160405180910390fd5b81600081118015611f2a57506009548111155b611f465760405162461bcd60e51b81526004016110ef90613a7e565b600083815260116020526040902054839060ff1615611f785760405163091867bd60e11b815260040160405180910390fd5b33611f828561150f565b6001600160a01b031614611fa9576040516359dc379f60e01b815260040160405180910390fd5b600b543414611fcb5760405163fc15c67960e01b815260040160405180910390fd5b8251158015611fdc57506020830151155b8015611fea57506040830151155b156120075760405162bfc92160e01b815260040160405180910390fd5b6000848152600f6020908152604080832060068101805460ff191690558651600382015591860151600483015585015160058201556001810180546001600160a01b0319908116331790915560028201805490911630179055426007820155600a8054919261207583613b04565b9190505550612085333087612d28565b835160208086015160408088015181519485529284019190915282015285907f6ef2ff813efc9efc76792366c4aca2677b755a5a13affc54d96ef35dc8e9bb73906060016117f7565b6120d661237c565b80601260008460028111156120ed576120ed613abf565b60028111156120fe576120fe613abf565b81526020810191909152604001600020555050565b6001600160a01b03918216600090815260056020908152604080832093909416825291909152205460ff1690565b61214961237c565b806001600160a01b0381166121715760405163e6c4247b60e01b815260040160405180910390fd5b600d80546001600160a01b038481166001600160a01b031983168117909355604080519190921680825260208201939093527faaebcf1bfa00580e41d966056b48521fa9f202645c86d4ddf28113e617c1b1d3910160405180910390a1505050565b6121db61237c565b6001600160a01b03811661220557604051631e4fbdf760e01b8152600060048201526024016110ef565b61150c8161272c565b612216612554565b61221e61257e565b3360009081526010602052604090205460ff161561224f5760405163d9a60d2d60e01b815260040160405180910390fd5b8060008111801561226257506009548111155b61227e5760405162461bcd60e51b81526004016110ef90613a7e565b600082815260116020526040902054829060ff16156122b05760405163091867bd60e11b815260040160405180910390fd5b6000838152600f60205260408120600381015490918190036122e55760405163037eff1360e21b815260040160405180910390fd5b8034146123055760405163cd1c886760e01b815260040160405180910390fd5b6114fe85826000612dd8565b60006001600160e01b03198216632483248360e11b1480610b445750610b4482612f53565b6000818152600260205260408120546001600160a01b031680610b4457604051637e27328960e01b8152600481018490526024016110ef565b6112428383836001612fa3565b6008546001600160a01b036101009091041633146112255760405163118cdaa760e01b81523360048201526024016110ef565b6040516001600160a01b0383811660248301526044820183905261124291859182169063a9059cbb906064015b604051602081830303815290604052915060e01b6020820180516001600160e01b0383818316178352505050506130a9565b6000828152600260205260408120546001600160a01b039081169083161561243b5761243b81848661311a565b6001600160a01b0381161561247957612458600085600080612fa3565b6001600160a01b038116600090815260036020526040902080546000190190555b6001600160a01b038516156124a8576001600160a01b0385166000908152600360205260409020805460010190555b60008481526002602052604080822080546001600160a01b0319166001600160a01b0389811691821790925591518793918516917fddf252ad1be2c89b69c2b068fc378daa952ba7f163c4a11628f55a4df523b3ef91a4949350505050565b61250f61317e565b6008805460ff191690557f5db9ee0a495bf2e6ff9c91a7834c1ba4fdd244a5e8aa4e537bd38aeae4b073aa335b6040516001600160a01b0390911681526020016119f2565b60026007540361257757604051633ee5aeb560e01b815260040160405180910390fd5b6002600755565b60085460ff16156112255760405163d93c066560e01b815260040160405180910390fd5b6000848152600f602052604081206001810154600c5491926001600160a01b0390911691612710906125d49088613a45565b6125de9190613a5c565b905060006127108460080154886125f59190613a45565b6125ff9190613a5c565b905060008161260e848a6139ea565b61261891906139ea565b6002860180546001600160a01b0319908116331790915560068701805460ff19166001908117909155870180549091169055600a8054919250600061265c83613a13565b919050555061266c30338b612d28565b821561268e57600d5461268e906001600160a01b0388811691339116866131a1565b81156126b25760098501546126b2906001600160a01b0388811691339116856131a1565b80156126cd576126cd6001600160a01b0387163386846131a1565b336001600160a01b0316846001600160a01b03168a7fdc4551048b3948a0ec0de4dc01527fd2366aa132e16101dbcf7693c60a3a03e98b8b888842604051612719959493929190613b1b565b60405180910390a4505050505050505050565b600880546001600160a01b03838116610100818102610100600160a81b031985161790945560405193909204169182907f8be0079c531659141344cd1fd0a4f28419497f9722a3daafe3b4186f6b6457e090600090a35050565b804710156127b05760405163cf47918160e01b8152476004820152602481018290526044016110ef565b600080836001600160a01b03168360405160006040518083038185875af1925050503d80600081146127fe576040519150601f19603f3d011682016040523d82523d6000602084013e612803565b606091505b50915091508161115357611153816131da565b61281e61257e565b6008805460ff191660011790557f62e78cea01bee320cd4e420270b5ea74000d11b0c9f74754ebdbfc544b05a25861253c3390565b6001600160a01b03821661288557604051630b61174360e31b81526001600160a01b03831660048201526024016110ef565b6001600160a01b03838116600081815260056020908152604080832094871680845294825291829020805460ff191686151590811790915591519182527f17307eab39ab6107e8899845ad3d59bd9653f200f220920489ca2b5937696c31910160405180910390a3505050565b6001600160a01b0383163b15612a1657604051630a85bd0160e11b81526001600160a01b0384169063150b7a0290612934908890889087908790600401613b62565b6020604051808303816000875af192505050801561296f575060408051601f3d908101601f1916820190925261296c91810190613b9f565b60015b6129d8573d80801561299d576040519150601f19603f3d011682016040523d82523d6000602084013e6129a2565b606091505b5080516000036129d057604051633250574960e11b81526001600160a01b03851660048201526024016110ef565b805160208201fd5b6001600160e01b03198116630a85bd0160e11b14612a1457604051633250574960e11b81526001600160a01b03851660048201526024016110ef565b505b5050505050565b6001600160a01b038216612a4757604051633250574960e11b8152600060048201526024016110ef565b6000612a558383600061240e565b90506001600160a01b03811615611242576040516339e3563760e11b8152600060048201526024016110ef565b6000828152600660205260409020612a9a8282613c02565b506040518281527ff8e1a15aba9398e019f0b49df1a4fde98ee17ae345cb5f6b5e2c27f5033e8ce790602001610ed6565b604051806101400160405280858152602001336001600160a01b03168152602001306001600160a01b03168152602001846000015181526020018460200151815260200184604001518152602001600015158152602001428152602001838152602001826001600160a01b0316815250600f60008681526020019081526020016000206000820151816000015560208201518160010160006101000a8154816001600160a01b0302191690836001600160a01b0316021790555060408201518160020160006101000a8154816001600160a01b0302191690836001600160a01b03160217905550606082015181600301556080820151816004015560a0820151816005015560c08201518160060160006101000a81548160ff02191690831515021790555060e0820151816007015561010082015181600801556101208201518160090160006101000a8154816001600160a01b0302191690836001600160a01b03160217905550905050612c41333086612d28565b8251602080850151604080870151815194855292840191909152820152606081018390526001600160a01b03821660808201524260a08201523090339086907fdce15fec13f958714593bed55a942453e1154161df1c377f44679b531754bf939060c00160405180910390a450505050565b6060612cbe82612336565b506000612cd660408051602081019091526000815290565b90506000815111612cf65760405180602001604052806000815250612d21565b80612d0084613202565b604051602001612d11929190613ad5565b6040516020818303038152906040525b9392505050565b6001600160a01b038216612d5257604051633250574960e11b8152600060048201526024016110ef565b6000612d608383600061240e565b90506001600160a01b038116612d8c57604051637e27328960e01b8152600481018390526024016110ef565b836001600160a01b0316816001600160a01b031614611153576040516364283d7b60e01b81526001600160a01b03808616600483015260248201849052821660448201526064016110ef565b6000838152600f602052604081206001810154600c5491926001600160a01b039091169161271090612e0a9087613a45565b612e149190613a5c565b90506000612710846008015487612e2b9190613a45565b612e359190613a5c565b9050600081612e4484896139ea565b612e4e91906139ea565b6002860180546001600160a01b0319908116331790915560068701805460ff19166001908117909155870180549091169055600a80549192506000612e9283613a13565b9190505550612ea230338a612d28565b8215612ebe57600d54612ebe906001600160a01b031684612786565b8115612edc576009850154612edc906001600160a01b031683612786565b8015612ef557612ef56001600160a01b03851682612786565b336001600160a01b0316846001600160a01b0316897fdc4551048b3948a0ec0de4dc01527fd2366aa132e16101dbcf7693c60a3a03e98a8a888842604051612f41959493929190613b1b565b60405180910390a45050505050505050565b60006001600160e01b031982166380ac58cd60e01b1480612f8457506001600160e01b03198216635b5e139f60e01b145b80610b4457506301ffc9a760e01b6001600160e01b0319831614610b44565b8080612fb757506001600160a01b03821615155b15613079576000612fc784612336565b90506001600160a01b03831615801590612ff35750826001600160a01b0316816001600160a01b031614155b801561300657506130048184612113565b155b1561302f5760405163a9fbf51f60e01b81526001600160a01b03841660048201526024016110ef565b81156130775783856001600160a01b0316826001600160a01b03167f8c5be1e5ebec7d5bd14f71427d1e84f3dd0314c0f7b2291e5b200ac8c7c3b92560405160405180910390a45b505b5050600090815260046020526040902080546001600160a01b0319166001600160a01b0392909216919091179055565b600080602060008451602086016000885af1806130cc576040513d6000823e3d81fd5b50506000513d915081156130e45780600114156130f1565b6001600160a01b0384163b155b1561115357604051635274afe760e01b81526001600160a01b03851660048201526024016110ef565b613125838383613295565b611242576001600160a01b03831661315357604051637e27328960e01b8152600481018290526024016110ef565b60405163177e802f60e01b81526001600160a01b0383166004820152602481018290526044016110ef565b60085460ff1661122557604051638dfc202b60e01b815260040160405180910390fd5b6040516001600160a01b0384811660248301528381166044830152606482018390526111539186918216906323b872dd906084016123dc565b8051156131e957805160208201fd5b60405163d6bda27560e01b815260040160405180910390fd5b6060600061320f836132f8565b600101905060008167ffffffffffffffff81111561322f5761322f6136c9565b6040519080825280601f01601f191660200182016040528015613259576020820181803683370190505b5090508181016020015b600019016f181899199a1a9b1b9c1cb0b131b232b360811b600a86061a8153600a850494508461326357509392505050565b60006001600160a01b03831615801590611c6d5750826001600160a01b0316846001600160a01b031614806132cf57506132cf8484612113565b80611c6d5750506000908152600460205260409020546001600160a01b03908116911614919050565b60008072184f03e93ff9f4daa797ed6e38ed64bf6a1f0160401b83106133375772184f03e93ff9f4daa797ed6e38ed64bf6a1f0160401b830492506040015b6d04ee2d6d415b85acef81000000008310613363576d04ee2d6d415b85acef8100000000830492506020015b662386f26fc10000831061338157662386f26fc10000830492506010015b6305f5e1008310613399576305f5e100830492506008015b61271083106133ad57612710830492506004015b606483106133bf576064830492506002015b600a8310610b445760010192915050565b6040518061014001604052806000815260200160006001600160a01b0316815260200160006001600160a01b03168152602001600081526020016000815260200160008152602001600015158152602001600081526020016000815260200160006001600160a01b031681525090565b6001600160e01b03198116811461150c57600080fd5b60006020828403121561346857600080fd5b8135612d2181613440565b60005b8381101561348e578181015183820152602001613476565b50506000910152565b600081518084526134af816020860160208601613473565b601f01601f19169290920160200192915050565b602081526000612d216020830184613497565b6000602082840312156134e857600080fd5b5035919050565b6001600160a01b038116811461150c57600080fd5b6000806040838503121561351757600080fd5b8235613522816134ef565b946020939093013593505050565b80518252602081015161354e60208401826001600160a01b03169052565b50604081015161356960408401826001600160a01b03169052565b50606081015160608301526080810151608083015260a081015160a083015260c081015161359b60c084018215159052565b5060e081810151908301526101008082015190830152610120808201516001600160a01b03811682850152611153565b6020808252825182820181905260009190848201906040850190845b8181101561360e576135fa838551613530565b9284019261014092909201916001016135e7565b50909695505050505050565b60006020828403121561362c57600080fd5b8135612d21816134ef565b60008060006060848603121561364c57600080fd5b8335613657816134ef565b92506020840135613667816134ef565b929592945050506040919091013590565b6000806040838503121561368b57600080fd5b50508035926020909101359150565b8035600381106136a957600080fd5b919050565b6000602082840312156136c057600080fd5b612d218261369a565b634e487b7160e01b600052604160045260246000fd5b6000606082840312156136f157600080fd5b6040516060810181811067ffffffffffffffff82111715613714576137146136c9565b80604052508091508235815260208301356020820152604083013560408201525092915050565b6000806080838503121561374e57600080fd5b8235915061375f84602085016136df565b90509250929050565b803580151581146136a957600080fd5b6000806040838503121561378b57600080fd5b8235613796816134ef565b915061375f60208401613768565b600067ffffffffffffffff808411156137bf576137bf6136c9565b604051601f8501601f19908116603f011681019082821181831017156137e7576137e76136c9565b8160405280935085815286868601111561380057600080fd5b858560208301376000602087830101525050509392505050565b6000806000806080858703121561383057600080fd5b843561383b816134ef565b9350602085013561384b816134ef565b925060408501359150606085013567ffffffffffffffff81111561386e57600080fd5b8501601f8101871361387f57600080fd5b61388e878235602084016137a4565b91505092959194509250565b60008060008060c085870312156138b057600080fd5b843567ffffffffffffffff8111156138c757600080fd5b8501601f810187136138d857600080fd5b6138e7878235602084016137a4565b9450506138f786602087016136df565b92506080850135915060a085013561390e816134ef565b939692955090935050565b6000806040838503121561392c57600080fd5b8235915061375f60208401613768565b6101408101610b448284613530565b6000806040838503121561395e57600080fd5b6135228361369a565b6000806040838503121561397a57600080fd5b8235613985816134ef565b91506020830135613995816134ef565b809150509250929050565b600181811c908216806139b457607f821691505b602082108103611dc757634e487b7160e01b600052602260045260246000fd5b634e487b7160e01b600052601160045260246000fd5b81810381811115610b4457610b446139d4565b634e487b7160e01b600052603260045260246000fd5b600060018201613a2557613a256139d4565b5060010190565b600060208284031215613a3e57600080fd5b5051919050565b8082028115828204841417610b4457610b446139d4565b600082613a7957634e487b7160e01b600052601260045260246000fd5b500490565b602080825260149082015273151bdad95b88191bd95cc81b9bdd08195e1a5cdd60621b604082015260600190565b80820180821115610b4457610b446139d4565b634e487b7160e01b600052602160045260246000fd5b60008351613ae7818460208801613473565b835190830190613afb818360208801613473565b01949350505050565b600081613b1357613b136139d4565b506000190190565b85815260a0810160038610613b4057634e487b7160e01b600052602160045260246000fd5b8560208301528460408301528360608301528260808301529695505050505050565b6001600160a01b0385811682528416602082015260408101839052608060608201819052600090613b9590830184613497565b9695505050505050565b600060208284031215613bb157600080fd5b8151612d2181613440565b601f82111561124257600081815260208120601f850160051c81016020861015613be35750805b601f850160051c820191505b81811015612a1457828155600101613bef565b815167ffffffffffffffff811115613c1c57613c1c6136c9565b613c3081613c2a84546139a0565b84613bbc565b602080601f831160018114613c655760008415613c4d5750858301515b600019600386901b1c1916600185901b178555612a14565b600085815260208120601f198616915b82811015613c9457888601518255948401946001909101908401613c75565b5085821015613cb25787850151600019600388901b60f8161c191681555b5050505050600190811b0190555056fea2646970667358221220a6e3261ec9aa7de4d8f6c289b15cdd3c9096a676b6eaa0fadd91e225bc37893164736f6c63430008140033",
  "linkReferences": {},
  "deployedLinkReferences": {}
}